{
  "_format": "hh-sol-artifact-1",
  "contractName": "FeeCollector",
  "sourceName": "contracts/FeeCollector.sol",
  "abi": [
    {
      "inputs": [],
      "stateMutability": "nonpayable",
      "type": "constructor"
    },
    {
      "inputs": [
        {
          "internalType": "address",
          "name": "owner",
          "type": "address"
        }
      ],
      "name": "OwnableInvalidOwner",
      "type": "error"
    },
    {
      "inputs": [
        {
          "internalType": "address",
          "name": "account",
          "type": "address"
        }
      ],
      "name": "OwnableUnauthorizedAccount",
      "type": "error"
    },
    {
      "inputs": [
        {
          "internalType": "address",
          "name": "token",
          "type": "address"
        }
      ],
      "name": "SafeERC20FailedOperation",
      "type": "error"
    },
    {
      "anonymous": false,
      "inputs": [
        {
          "indexed": true,
          "internalType": "address",
          "name": "from",
          "type": "address"
        },
        {
          "indexed": false,
          "internalType": "uint256",
          "name": "amount",
          "type": "uint256"
        }
      ],
      "name": "FeeReceived",
      "type": "event"
    },
    {
      "anonymous": false,
      "inputs": [
        {
          "indexed": true,
          "internalType": "address",
          "name": "to",
          "type": "address"
        },
        {
          "indexed": false,
          "internalType": "uint256",
          "name": "amount",
          "type": "uint256"
        }
      ],
      "name": "NativeWithdrawn",
      "type": "event"
    },
    {
      "anonymous": false,
      "inputs": [
        {
          "indexed": true,
          "internalType": "address",
          "name": "previousOwner",
          "type": "address"
        },
        {
          "indexed": true,
          "internalType": "address",
          "name": "newOwner",
          "type": "address"
        }
      ],
      "name": "OwnershipTransferred",
      "type": "event"
    },
    {
      "anonymous": false,
      "inputs": [
        {
          "indexed": true,
          "internalType": "address",
          "name": "token",
          "type": "address"
        },
        {
          "indexed": true,
          "internalType": "address",
          "name": "to",
          "type": "address"
        },
        {
          "indexed": false,
          "internalType": "uint256",
          "name": "amount",
          "type": "uint256"
        }
      ],
      "name": "TokenWithdrawn",
      "type": "event"
    },
    {
      "inputs": [],
      "name": "collect",
      "outputs": [],
      "stateMutability": "payable",
      "type": "function"
    },
    {
      "inputs": [],
      "name": "nativeBalance",
      "outputs": [
        {
          "internalType": "uint256",
          "name": "",
          "type": "uint256"
        }
      ],
      "stateMutability": "view",
      "type": "function"
    },
    {
      "inputs": [],
      "name": "owner",
      "outputs": [
        {
          "internalType": "address",
          "name": "",
          "type": "address"
        }
      ],
      "stateMutability": "view",
      "type": "function"
    },
    {
      "inputs": [],
      "name": "renounceOwnership",
      "outputs": [],
      "stateMutability": "nonpayable",
      "type": "function"
    },
    {
      "inputs": [
        {
          "internalType": "address",
          "name": "token",
          "type": "address"
        }
      ],
      "name": "tokenBalance",
      "outputs": [
        {
          "internalType": "uint256",
          "name": "",
          "type": "uint256"
        }
      ],
      "stateMutability": "view",
      "type": "function"
    },
    {
      "inputs": [
        {
          "internalType": "address",
          "name": "newOwner",
          "type": "address"
        }
      ],
      "name": "transferOwnership",
      "outputs": [],
      "stateMutability": "nonpayable",
      "type": "function"
    },
    {
      "inputs": [
        {
          "internalType": "address",
          "name": "token",
          "type": "address"
        },
        {
          "internalType": "address",
          "name": "to",
          "type": "address"
        }
      ],
      "name": "withdrawAllToken",
      "outputs": [],
      "stateMutability": "nonpayable",
      "type": "function"
    },
    {
      "inputs": [
        {
          "internalType": "address payable",
          "name": "to",
          "type": "address"
        },
        {
          "internalType": "uint256",
          "name": "amount",
          "type": "uint256"
        }
      ],
      "name": "withdrawNative",
      "outputs": [],
      "stateMutability": "nonpayable",
      "type": "function"
    },
    {
      "inputs": [
        {
          "internalType": "address",
          "name": "token",
          "type": "address"
        },
        {
          "internalType": "address",
          "name": "to",
          "type": "address"
        },
        {
          "internalType": "uint256",
          "name": "amount",
          "type": "uint256"
        }
      ],
      "name": "withdrawToken",
      "outputs": [],
      "stateMutability": "nonpayable",
      "type": "function"
    },
    {
      "stateMutability": "payable",
      "type": "receive"
    }
  ],
  "bytecode": "0x6080604052348015600e575f80fd5b503380603357604051631e4fbdf760e01b81525f600482015260240160405180910390fd5b603a81603f565b50608e565b5f80546001600160a01b038381166001600160a01b0319831681178455604051919092169283917f8be0079c531659141344cd1fd0a4f28419497f9722a3daafe3b4186f6b6457e09190a35050565b6107e18061009b5f395ff3fe608060405260043610610087575f3560e01c8063865fc50111610057578063865fc5011461013a5780638da5cb5b1461015b578063e522538114610181578063eedc966a14610189578063f2fde38b146101a8575f80fd5b806301e33667146100c757806307b18bde146100e85780633aeebedb14610107578063715018a614610126575f80fd5b366100c35760405134815233907fbb527541f6cc244ae00ab689f8c23d072a30a3b4176021df62ea1c2bac8aa2269060200160405180910390a2005b5f80fd5b3480156100d2575f80fd5b506100e66100e13660046106d3565b6101c7565b005b3480156100f3575f80fd5b506100e6610102366004610711565b61027f565b348015610112575f80fd5b506100e661012136600461073b565b6103f9565b348015610131575f80fd5b506100e66104b3565b348015610145575f80fd5b50475b6040519081526020015b60405180910390f35b348015610166575f80fd5b505f546040516001600160a01b039091168152602001610152565b6100e66104c6565b348015610194575f80fd5b506101486101a3366004610772565b6104fd565b3480156101b3575f80fd5b506100e66101c2366004610772565b61056b565b6101cf6105a8565b6001600160a01b0382166102195760405162461bcd60e51b815260206004820152600c60248201526b5a65726f206164647265737360a01b60448201526064015b60405180910390fd5b61022d6001600160a01b03841683836105d4565b816001600160a01b0316836001600160a01b03167f8210728e7c071f615b840ee026032693858fbcd5e5359e67e438c890f59e56208360405161027291815260200190565b60405180910390a3505050565b6102876105a8565b6001600160a01b0382166102cc5760405162461bcd60e51b815260206004820152600c60248201526b5a65726f206164647265737360a01b6044820152606401610210565b8047101561031c5760405162461bcd60e51b815260206004820152601860248201527f496e73756666696369656e74204554482062616c616e636500000000000000006044820152606401610210565b5f826001600160a01b0316826040515f6040518083038185875af1925050503d805f8114610365576040519150601f19603f3d011682016040523d82523d5f602084013e61036a565b606091505b50509050806103b15760405162461bcd60e51b8152602060048201526013602482015272115512081d1c985b9cd9995c8819985a5b1959606a1b6044820152606401610210565b826001600160a01b03167fc303ca808382409472acbbf899c316cf439f409f6584aae22df86dfa3c9ed504836040516103ec91815260200190565b60405180910390a2505050565b6104016105a8565b6040516370a0823160e01b81523060048201525f906001600160a01b038416906370a0823190602401602060405180830381865afa158015610445573d5f803e3d5ffd5b505050506040513d601f19601f820116820180604052508101906104699190610794565b90505f81116102195760405162461bcd60e51b81526020600482015260166024820152754e6f2062616c616e636520746f20776974686472617760501b6044820152606401610210565b6104bb6105a8565b6104c45f61060e565b565b60405134815233907fbb527541f6cc244ae00ab689f8c23d072a30a3b4176021df62ea1c2bac8aa2269060200160405180910390a2565b6040516370a0823160e01b81523060048201525f906001600160a01b038316906370a0823190602401602060405180830381865afa158015610541573d5f803e3d5ffd5b505050506040513d601f19601f820116820180604052508101906105659190610794565b92915050565b6105736105a8565b6001600160a01b03811661059c57604051631e4fbdf760e01b81525f6004820152602401610210565b6105a58161060e565b50565b5f546001600160a01b031633146104c45760405163118cdaa760e01b8152336004820152602401610210565b6105e1838383600161065d565b61060957604051635274afe760e01b81526001600160a01b0384166004820152602401610210565b505050565b5f80546001600160a01b038381166001600160a01b0319831681178455604051919092169283917f8be0079c531659141344cd1fd0a4f28419497f9722a3daafe3b4186f6b6457e09190a35050565b60405163a9059cbb60e01b5f8181526001600160a01b038616600452602485905291602083604481808b5af1925060015f511483166106b35783831516156106a7573d5f823e3d81fd5b5f873b113d1516831692505b60405250949350505050565b6001600160a01b03811681146105a5575f80fd5b5f805f606084860312156106e5575f80fd5b83356106f0816106bf565b92506020840135610700816106bf565b929592945050506040919091013590565b5f8060408385031215610722575f80fd5b823561072d816106bf565b946020939093013593505050565b5f806040838503121561074c575f80fd5b8235610757816106bf565b91506020830135610767816106bf565b809150509250929050565b5f60208284031215610782575f80fd5b813561078d816106bf565b9392505050565b5f602082840312156107a4575f80fd5b505191905056fea26469706673582212209d676d49a5dc8782ddaa5c5644207430ea128789079fbeaacd50d046ecab414664736f6c634300081a0033",
  "linkReferences": {},
  "deployedLinkReferences": {}
}