{"contracts/FaroLinkRouter.sol":{"FaroLinkRouter":{"abi":[{"inputs":[{"internalType":"address","name":"_feeCollector","type":"address"}],"stateMutability":"nonpayable","type":"constructor"},{"inputs":[{"internalType":"address","name":"owner","type":"address"}],"name":"OwnableInvalidOwner","type":"error"},{"inputs":[{"internalType":"address","name":"account","type":"address"}],"name":"OwnableUnauthorizedAccount","type":"error"},{"inputs":[],"name":"ReentrancyGuardReentrantCall","type":"error"},{"inputs":[{"internalType":"address","name":"token","type":"address"}],"name":"SafeERC20FailedOperation","type":"error"},{"anonymous":false,"inputs":[{"indexed":true,"internalType":"address","name":"adapter","type":"address"},{"indexed":false,"internalType":"bool","name":"approved","type":"bool"}],"name":"AdapterApproved","type":"event"},{"anonymous":false,"inputs":[{"indexed":false,"internalType":"uint256","name":"newFeeBps","type":"uint256"}],"name":"FeeBpsUpdated","type":"event"},{"anonymous":false,"inputs":[{"indexed":true,"internalType":"address","name":"newFeeCollector","type":"address"}],"name":"FeeCollectorUpdated","type":"event"},{"anonymous":false,"inputs":[{"indexed":true,"internalType":"address","name":"previousOwner","type":"address"},{"indexed":true,"internalType":"address","name":"newOwner","type":"address"}],"name":"OwnershipTransferred","type":"event"},{"anonymous":false,"inputs":[{"indexed":true,"internalType":"address","name":"by","type":"address"}],"name":"Paused","type":"event"},{"anonymous":false,"inputs":[{"indexed":true,"internalType":"address","name":"token","type":"address"},{"indexed":false,"internalType":"uint256","name":"amount","type":"uint256"}],"name":"ProtocolFeeCollected","type":"event"},{"anonymous":false,"inputs":[{"indexed":true,"internalType":"address","name":"user","type":"address"},{"indexed":true,"internalType":"bytes32","name":"routeId","type":"bytes32"},{"indexed":false,"internalType":"address","name":"tokenIn","type":"address"},{"indexed":false,"internalType":"uint256","name":"amountIn","type":"uint256"},{"indexed":false,"internalType":"uint256","name":"hopCount","type":"uint256"}],"name":"RouteExecuted","type":"event"},{"anonymous":false,"inputs":[{"indexed":true,"internalType":"address","name":"by","type":"address"}],"name":"Unpaused","type":"event"},{"inputs":[{"internalType":"address","name":"adapter","type":"address"},{"internalType":"bool","name":"approved","type":"bool"}],"name":"approveAdapter","outputs":[],"stateMutability":"nonpayable","type":"function"},{"inputs":[{"internalType":"address","name":"","type":"address"}],"name":"approvedAdapters","outputs":[{"internalType":"bool","name":"","type":"bool"}],"stateMutability":"view","type":"function"},{"inputs":[{"components":[{"internalType":"address","name":"bridgeAdapter","type":"address"},{"internalType":"bytes","name":"callData","type":"bytes"},{"internalType":"address","name":"tokenIn","type":"address"},{"internalType":"uint256","name":"amountIn","type":"uint256"},{"internalType":"bool","name":"isNative","type":"bool"}],"internalType":"struct FaroLinkRouter.HopData[]","name":"hops","type":"tuple[]"},{"internalType":"bytes32","name":"routeId","type":"bytes32"}],"name":"executePath","outputs":[],"stateMutability":"payable","type":"function"},{"inputs":[],"name":"feeBps","outputs":[{"internalType":"uint256","name":"","type":"uint256"}],"stateMutability":"view","type":"function"},{"inputs":[],"name":"feeCollector","outputs":[{"internalType":"address","name":"","type":"address"}],"stateMutability":"view","type":"function"},{"inputs":[],"name":"owner","outputs":[{"internalType":"address","name":"","type":"address"}],"stateMutability":"view","type":"function"},{"inputs":[],"name":"paused","outputs":[{"internalType":"bool","name":"","type":"bool"}],"stateMutability":"view","type":"function"},{"inputs":[],"name":"renounceOwnership","outputs":[],"stateMutability":"nonpayable","type":"function"},{"inputs":[{"internalType":"address payable","name":"to","type":"address"},{"internalType":"uint256","name":"amount","type":"uint256"}],"name":"rescueETH","outputs":[],"stateMutability":"nonpayable","type":"function"},{"inputs":[{"internalType":"address","name":"token","type":"address"},{"internalType":"address","name":"to","type":"address"},{"internalType":"uint256","name":"amount","type":"uint256"}],"name":"rescueToken","outputs":[],"stateMutability":"nonpayable","type":"function"},{"inputs":[{"internalType":"uint256","name":"_bps","type":"uint256"}],"name":"setFeeBps","outputs":[],"stateMutability":"nonpayable","type":"function"},{"inputs":[{"internalType":"address","name":"_fc","type":"address"}],"name":"setFeeCollector","outputs":[],"stateMutability":"nonpayable","type":"function"},{"inputs":[{"internalType":"bool","name":"_paused","type":"bool"}],"name":"setPaused","outputs":[],"stateMutability":"nonpayable","type":"function"},{"inputs":[{"internalType":"address","name":"newOwner","type":"address"}],"name":"transferOwnership","outputs":[],"stateMutability":"nonpayable","type":"function"},{"stateMutability":"payable","type":"receive"}],"evm":{"bytecode":{"linkReferences":{},"object":"60806040526005600255348015610014575f80fd5b506040516115e93803806115e983398101604081905261003391610151565b338061005957604051631e4fbdf760e01b81525f60048201526024015b60405180910390fd5b61006281610102565b5060017f9b779b17422d0df92223018b32b4d1fa46e071723d6817e2486d003becc55f00556001600160a01b0381166100dd5760405162461bcd60e51b815260206004820152601560248201527f496e76616c69642066656520636f6c6c6563746f7200000000000000000000006044820152606401610050565b600180546001600160a01b0319166001600160a01b039290921691909117905561017e565b5f80546001600160a01b038381166001600160a01b0319831681178455604051919092169283917f8be0079c531659141344cd1fd0a4f28419497f9722a3daafe3b4186f6b6457e09190a35050565b5f60208284031215610161575f80fd5b81516001600160a01b0381168114610177575f80fd5b9392505050565b61145e8061018b5f395ff3fe6080604052600436106100dc575f3560e01c806372a1ee491161007c578063a42dce8011610057578063a42dce801461023b578063c415b95c1461025a578063e5711e8b14610279578063f2fde38b14610298575f80fd5b806372a1ee49146101cd57806372c27b62146101ec5780638da5cb5b1461020b575f80fd5b806324a9d853116100b757806324a9d8531461013a5780635abbc712146101625780635c975abb146101a0578063715018a6146101b9575f80fd5b8063099a04e5146100e75780630e4562e71461010857806316c38b3c1461011b575f80fd5b366100e357005b5f80fd5b3480156100f2575f80fd5b506101066101013660046110e9565b6102b7565b005b610106610116366004611113565b6103f3565b348015610126575f80fd5b5061010661013536600461119c565b610a3c565b348015610145575f80fd5b5061014f60025481565b6040519081526020015b60405180910390f35b34801561016d575f80fd5b5061019061017c3660046111bc565b60046020525f908152604090205460ff1681565b6040519015158152602001610159565b3480156101ab575f80fd5b506003546101909060ff1681565b3480156101c4575f80fd5b50610106610ab6565b3480156101d8575f80fd5b506101066101e73660046111d7565b610ac9565b3480156101f7575f80fd5b5061010661020636600461120a565b610b2f565b348015610216575f80fd5b505f546001600160a01b03165b6040516001600160a01b039091168152602001610159565b348015610246575f80fd5b506101066102553660046111bc565b610bba565b348015610265575f80fd5b50600154610223906001600160a01b031681565b348015610284575f80fd5b50610106610293366004611221565b610c50565b3480156102a3575f80fd5b506101066102b23660046111bc565b610c6c565b6102bf610ca6565b6001600160a01b0382166103095760405162461bcd60e51b815260206004820152600c60248201526b5a65726f206164647265737360a01b60448201526064015b60405180910390fd5b804710156103595760405162461bcd60e51b815260206004820152601860248201527f496e73756666696369656e74204554482062616c616e636500000000000000006044820152606401610300565b5f826001600160a01b0316826040515f6040518083038185875af1925050503d805f81146103a2576040519150601f19603f3d011682016040523d82523d5f602084013e6103a7565b606091505b50509050806103ee5760405162461bcd60e51b8152602060048201526013602482015272115512081d1c985b9cd9995c8819985a5b1959606a1b6044820152606401610300565b505050565b6103fb610cd2565b60035460ff161561044e5760405162461bcd60e51b815260206004820152601860248201527f506861726f73466c6f77526f757465723a2070617573656400000000000000006044820152606401610300565b811580159061045e575060058211155b61049e5760405162461bcd60e51b8152602060048201526011602482015270125b9d985b1a59081a1bdc0818dbdd5b9d607a1b6044820152606401610300565b5f5b8281101561096e57368484838181106104bb576104bb61125f565b90506020028101906104cd9190611273565b905060045f6104df60208401846111bc565b6001600160a01b0316815260208101919091526040015f205460ff1661050483610d00565b60405160200161051491906112a8565b604051602081830303815290604052906105415760405162461bcd60e51b815260040161030091906112d9565b5061055260a082016080830161119c565b6107615761058033306060840180359061056f90604087016111bc565b6001600160a01b0316929190610d90565b5f61271060025483606001356105969190611322565b6105a09190611339565b9050801561062c576001546105d9906001600160a01b0316826105c960608601604087016111bc565b6001600160a01b03169190610dcc565b6105e960608301604084016111bc565b6001600160a01b03167f9f01c68c1df72199426e5dc03e009238218bf665f0fd62dc1a25b82c882d581b8260405161062391815260200190565b60405180910390a25b5f61063b826060850135611358565b905061066e61064d60208501856111bc565b8261065e60608701604088016111bc565b6001600160a01b03169190610e01565b5f8061067d60208601866111bc565b6001600160a01b0316610693602087018761136b565b6040516106a19291906113b5565b5f604051808303815f865af19150503d805f81146106da576040519150601f19603f3d011682016040523d82523d5f602084013e6106df565b606091505b509150915081610737578051156106f857805181602001fd5b61070186610d00565b60405160200161071191906113c4565b60408051601f198184030181529082905262461bcd60e51b8252610300916004016112d9565b61075861074760208701876111bc565b5f61065e6060890160408a016111bc565b50505050610965565b80606001353410156107b55760405162461bcd60e51b815260206004820152601960248201527f496e73756666696369656e74206e61746976652076616c7565000000000000006044820152606401610300565b5f61271060025483606001356107cb9190611322565b6107d59190611339565b905080156108aa576001546040515f916001600160a01b03169083908381818185875af1925050503d805f8114610827576040519150601f19603f3d011682016040523d82523d5f602084013e61082c565b606091505b50509050806108735760405162461bcd60e51b8152602060048201526013602482015272119959481d1c985b9cd9995c8819985a5b1959606a1b6044820152606401610300565b6040518281525f907f9f01c68c1df72199426e5dc03e009238218bf665f0fd62dc1a25b82c882d581b9060200160405180910390a2505b5f6108b9826060850135611358565b90505f806108ca60208601866111bc565b6001600160a01b0316836108e1602088018861136b565b6040516108ef9291906113b5565b5f6040518083038185875af1925050503d805f8114610929576040519150601f19603f3d011682016040523d82523d5f602084013e61092e565b606091505b5091509150816109605780511561094757805181602001fd5b61095086610d00565b60405160200161071191906113f5565b505050505b506001016104a0565b5080337f50630284ea85c8c17bda3cedccab685246a1036371db211589148a4289ed345685855f816109a2576109a261125f565b90506020028101906109b49190611273565b6109c59060608101906040016111bc565b86865f8181106109d7576109d761125f565b90506020028101906109e99190611273565b604080516001600160a01b039093168352606091820135602084015282018790520160405180910390a36103ee60017f9b779b17422d0df92223018b32b4d1fa46e071723d6817e2486d003becc55f0055565b610a44610ca6565b6003805460ff19168215801591909117909155610a885760405133907f62e78cea01bee320cd4e420270b5ea74000d11b0c9f74754ebdbfc544b05a258905f90a250565b60405133907f5db9ee0a495bf2e6ff9c91a7834c1ba4fdd244a5e8aa4e537bd38aeae4b073aa905f90a25b50565b610abe610ca6565b610ac75f610e53565b565b610ad1610ca6565b6001600160a01b0382165f81815260046020908152604091829020805460ff191685151590811790915591519182527f04761fdd4345c763665d7b0e62a745097bfcc206b1d336daea12cb997cc1e81b910160405180910390a25050565b610b37610ca6565b6064811115610b7f5760405162461bcd60e51b81526020600482015260146024820152734665652063616e6e6f742065786365656420312560601b6044820152606401610300565b60028190556040518181527f0399aa81c69e33acc2ff42d0f7a0809e6bf4c10ff3c3a7e040b12fedc14602f29060200160405180910390a150565b610bc2610ca6565b6001600160a01b038116610c075760405162461bcd60e51b815260206004820152600c60248201526b5a65726f206164647265737360a01b6044820152606401610300565b600180546001600160a01b0319166001600160a01b0383169081179091556040517fe5693914d19c789bdee50a362998c0bc8d035a835f9871da5d51152f0582c34f905f90a250565b610c58610ca6565b6103ee6001600160a01b0384168383610dcc565b610c74610ca6565b6001600160a01b038116610c9d57604051631e4fbdf760e01b81525f6004820152602401610300565b610ab381610e53565b5f546001600160a01b03163314610ac75760405163118cdaa760e01b8152336004820152602401610300565b610cda610ea2565b60027f9b779b17422d0df92223018b32b4d1fa46e071723d6817e2486d003becc55f0055565b60605f610d0c83610ee4565b60010190505f8167ffffffffffffffff811115610d2b57610d2b611414565b6040519080825280601f01601f191660200182016040528015610d55576020820181803683370190505b5090508181016020015b5f19016f181899199a1a9b1b9c1cb0b131b232b360811b600a86061a8153600a8504945084610d5f57509392505050565b610d9e848484846001610fbc565b610dc657604051635274afe760e01b81526001600160a01b0385166004820152602401610300565b50505050565b610dd98383836001611029565b6103ee57604051635274afe760e01b81526001600160a01b0384166004820152602401610300565b610e0d8383835f61108b565b6103ee57610e1e83835f600161108b565b610e4657604051635274afe760e01b81526001600160a01b0384166004820152602401610300565b610dd9838383600161108b565b5f80546001600160a01b038381166001600160a01b0319831681178455604051919092169283917f8be0079c531659141344cd1fd0a4f28419497f9722a3daafe3b4186f6b6457e09190a35050565b7f9b779b17422d0df92223018b32b4d1fa46e071723d6817e2486d003becc55f0054600203610ac757604051633ee5aeb560e01b815260040160405180910390fd5b5f8072184f03e93ff9f4daa797ed6e38ed64bf6a1f0160401b8310610f225772184f03e93ff9f4daa797ed6e38ed64bf6a1f0160401b830492506040015b6d04ee2d6d415b85acef81000000008310610f4e576d04ee2d6d415b85acef8100000000830492506020015b662386f26fc100008310610f6c57662386f26fc10000830492506010015b6305f5e1008310610f84576305f5e100830492506008015b6127108310610f9857612710830492506004015b60648310610faa576064830492506002015b600a8310610fb6576001015b92915050565b6040516323b872dd60e01b5f8181526001600160a01b038781166004528616602452604485905291602083606481808c5af1925060015f5114831661101857838315161561100c573d5f823e3d81fd5b5f883b113d1516831692505b604052505f60605295945050505050565b60405163a9059cbb60e01b5f8181526001600160a01b038616600452602485905291602083604481808b5af1925060015f5114831661107f578383151615611073573d5f823e3d81fd5b5f873b113d1516831692505b60405250949350505050565b60405163095ea7b360e01b5f8181526001600160a01b038616600452602485905291602083604481808b5af1925060015f5114831661107f578383151615611073573d5f823e3d81fd5b6001600160a01b0381168114610ab3575f80fd5b5f80604083850312156110fa575f80fd5b8235611105816110d5565b946020939093013593505050565b5f805f60408486031215611125575f80fd5b833567ffffffffffffffff81111561113b575f80fd5b8401601f8101861361114b575f80fd5b803567ffffffffffffffff811115611161575f80fd5b8660208260051b8401011115611175575f80fd5b6020918201979096509401359392505050565b80358015158114611197575f80fd5b919050565b5f602082840312156111ac575f80fd5b6111b582611188565b9392505050565b5f602082840312156111cc575f80fd5b81356111b5816110d5565b5f80604083850312156111e8575f80fd5b82356111f3816110d5565b915061120160208401611188565b90509250929050565b5f6020828403121561121a575f80fd5b5035919050565b5f805f60608486031215611233575f80fd5b833561123e816110d5565b9250602084013561124e816110d5565b929592945050506040919091013590565b634e487b7160e01b5f52603260045260245ffd5b5f8235609e19833603018112611287575f80fd5b9190910192915050565b5f81518060208401855e5f93019283525090919050565b7f556e617070726f766564206164617074657220617420686f702000000000000081525f6111b5601a830184611291565b602081525f82518060208401528060208501604085015e5f604082850101526040601f19601f83011684010191505092915050565b634e487b7160e01b5f52601160045260245ffd5b8082028115828204841417610fb657610fb661130e565b5f8261135357634e487b7160e01b5f52601260045260245ffd5b500490565b81810381811115610fb657610fb661130e565b5f808335601e19843603018112611380575f80fd5b83018035915067ffffffffffffffff82111561139a575f80fd5b6020019150368190038213156113ae575f80fd5b9250929050565b818382375f9101908152919050565b6302437b8160e51b81525f6113dc6004830184611291565b68081c995d995c9d195960ba1b81526009019392505050565b6a02730ba34bb32903437b8160ad1b81525f6113dc600b830184611291565b634e487b7160e01b5f52604160045260245ffdfea2646970667358221220602327ef0c71ded9024d99351a4a167e2fa237c55c433134ff640791b4e51cd264736f6c634300081a0033","opcodes":"PUSH1 0x80 PUSH1 0x40 MSTORE PUSH1 0x5 PUSH1 0x2 SSTORE CALLVALUE DUP1 ISZERO PUSH2 0x14 JUMPI PUSH0 DUP1 REVERT JUMPDEST POP PUSH1 0x40 MLOAD PUSH2 0x15E9 CODESIZE SUB DUP1 PUSH2 0x15E9 DUP4 CODECOPY DUP2 ADD PUSH1 0x40 DUP2 SWAP1 MSTORE PUSH2 0x33 SWAP2 PUSH2 0x151 JUMP JUMPDEST CALLER DUP1 PUSH2 0x59 JUMPI PUSH1 0x40 MLOAD PUSH4 0x1E4FBDF7 PUSH1 0xE0 SHL DUP2 MSTORE PUSH0 PUSH1 0x4 DUP3 ADD MSTORE PUSH1 0x24 ADD JUMPDEST PUSH1 0x40 MLOAD DUP1 SWAP2 SUB SWAP1 REVERT JUMPDEST PUSH2 0x62 DUP2 PUSH2 0x102 JUMP JUMPDEST POP PUSH1 0x1 PUSH32 0x9B779B17422D0DF92223018B32B4D1FA46E071723D6817E2486D003BECC55F00 SSTORE PUSH1 0x1 PUSH1 0x1 PUSH1 0xA0 SHL SUB DUP2 AND PUSH2 0xDD JUMPI PUSH1 0x40 MLOAD PUSH3 0x461BCD PUSH1 0xE5 SHL DUP2 MSTORE PUSH1 0x20 PUSH1 0x4 DUP3 ADD MSTORE PUSH1 0x15 PUSH1 0x24 DUP3 ADD MSTORE PUSH32 0x496E76616C69642066656520636F6C6C6563746F720000000000000000000000 PUSH1 0x44 DUP3 ADD MSTORE PUSH1 0x64 ADD PUSH2 0x50 JUMP JUMPDEST PUSH1 0x1 DUP1 SLOAD PUSH1 0x1 PUSH1 0x1 PUSH1 0xA0 SHL SUB NOT AND PUSH1 0x1 PUSH1 0x1 PUSH1 0xA0 SHL SUB SWAP3 SWAP1 SWAP3 AND SWAP2 SWAP1 SWAP2 OR SWAP1 SSTORE PUSH2 0x17E JUMP JUMPDEST PUSH0 DUP1 SLOAD PUSH1 0x1 PUSH1 0x1 PUSH1 0xA0 SHL SUB DUP4 DUP2 AND PUSH1 0x1 PUSH1 0x1 PUSH1 0xA0 SHL SUB NOT DUP4 AND DUP2 OR DUP5 SSTORE PUSH1 0x40 MLOAD SWAP2 SWAP1 SWAP3 AND SWAP3 DUP4 SWAP2 PUSH32 0x8BE0079C531659141344CD1FD0A4F28419497F9722A3DAAFE3B4186F6B6457E0 SWAP2 SWAP1 LOG3 POP POP JUMP JUMPDEST PUSH0 PUSH1 0x20 DUP3 DUP5 SUB SLT ISZERO PUSH2 0x161 JUMPI PUSH0 DUP1 REVERT JUMPDEST DUP2 MLOAD PUSH1 0x1 PUSH1 0x1 PUSH1 0xA0 SHL SUB DUP2 AND DUP2 EQ PUSH2 0x177 JUMPI PUSH0 DUP1 REVERT JUMPDEST SWAP4 SWAP3 POP POP POP JUMP JUMPDEST PUSH2 0x145E DUP1 PUSH2 0x18B PUSH0 CODECOPY PUSH0 RETURN INVALID PUSH1 0x80 PUSH1 0x40 MSTORE PUSH1 0x4 CALLDATASIZE LT PUSH2 0xDC JUMPI PUSH0 CALLDATALOAD PUSH1 0xE0 SHR DUP1 PUSH4 0x72A1EE49 GT PUSH2 0x7C JUMPI DUP1 PUSH4 0xA42DCE80 GT PUSH2 0x57 JUMPI DUP1 PUSH4 0xA42DCE80 EQ PUSH2 0x23B JUMPI DUP1 PUSH4 0xC415B95C EQ PUSH2 0x25A JUMPI DUP1 PUSH4 0xE5711E8B EQ PUSH2 0x279 JUMPI DUP1 PUSH4 0xF2FDE38B EQ PUSH2 0x298 JUMPI PUSH0 DUP1 REVERT JUMPDEST DUP1 PUSH4 0x72A1EE49 EQ PUSH2 0x1CD JUMPI DUP1 PUSH4 0x72C27B62 EQ PUSH2 0x1EC JUMPI DUP1 PUSH4 0x8DA5CB5B EQ PUSH2 0x20B JUMPI PUSH0 DUP1 REVERT JUMPDEST DUP1 PUSH4 0x24A9D853 GT PUSH2 0xB7 JUMPI DUP1 PUSH4 0x24A9D853 EQ PUSH2 0x13A JUMPI DUP1 PUSH4 0x5ABBC712 EQ PUSH2 0x162 JUMPI DUP1 PUSH4 0x5C975ABB EQ PUSH2 0x1A0 JUMPI DUP1 PUSH4 0x715018A6 EQ PUSH2 0x1B9 JUMPI PUSH0 DUP1 REVERT JUMPDEST DUP1 PUSH4 0x99A04E5 EQ PUSH2 0xE7 JUMPI DUP1 PUSH4 0xE4562E7 EQ PUSH2 0x108 JUMPI DUP1 PUSH4 0x16C38B3C EQ PUSH2 0x11B JUMPI PUSH0 DUP1 REVERT JUMPDEST CALLDATASIZE PUSH2 0xE3 JUMPI STOP JUMPDEST PUSH0 DUP1 REVERT JUMPDEST CALLVALUE DUP1 ISZERO PUSH2 0xF2 JUMPI PUSH0 DUP1 REVERT JUMPDEST POP PUSH2 0x106 PUSH2 0x101 CALLDATASIZE PUSH1 0x4 PUSH2 0x10E9 JUMP JUMPDEST PUSH2 0x2B7 JUMP JUMPDEST STOP JUMPDEST PUSH2 0x106 PUSH2 0x116 CALLDATASIZE PUSH1 0x4 PUSH2 0x1113 JUMP JUMPDEST PUSH2 0x3F3 JUMP JUMPDEST CALLVALUE DUP1 ISZERO PUSH2 0x126 JUMPI PUSH0 DUP1 REVERT JUMPDEST POP PUSH2 0x106 PUSH2 0x135 CALLDATASIZE PUSH1 0x4 PUSH2 0x119C JUMP JUMPDEST PUSH2 0xA3C JUMP JUMPDEST CALLVALUE DUP1 ISZERO PUSH2 0x145 JUMPI PUSH0 DUP1 REVERT JUMPDEST POP PUSH2 0x14F PUSH1 0x2 SLOAD DUP2 JUMP JUMPDEST PUSH1 0x40 MLOAD SWAP1 DUP2 MSTORE PUSH1 0x20 ADD JUMPDEST PUSH1 0x40 MLOAD DUP1 SWAP2 SUB SWAP1 RETURN JUMPDEST CALLVALUE DUP1 ISZERO PUSH2 0x16D JUMPI PUSH0 DUP1 REVERT JUMPDEST POP PUSH2 0x190 PUSH2 0x17C CALLDATASIZE PUSH1 0x4 PUSH2 0x11BC JUMP JUMPDEST PUSH1 0x4 PUSH1 0x20 MSTORE PUSH0 SWAP1 DUP2 MSTORE PUSH1 0x40 SWAP1 KECCAK256 SLOAD PUSH1 0xFF AND DUP2 JUMP JUMPDEST PUSH1 0x40 MLOAD SWAP1 ISZERO ISZERO DUP2 MSTORE PUSH1 0x20 ADD PUSH2 0x159 JUMP JUMPDEST CALLVALUE DUP1 ISZERO PUSH2 0x1AB JUMPI PUSH0 DUP1 REVERT JUMPDEST POP PUSH1 0x3 SLOAD PUSH2 0x190 SWAP1 PUSH1 0xFF AND DUP2 JUMP JUMPDEST CALLVALUE DUP1 ISZERO PUSH2 0x1C4 JUMPI PUSH0 DUP1 REVERT JUMPDEST POP PUSH2 0x106 PUSH2 0xAB6 JUMP JUMPDEST CALLVALUE DUP1 ISZERO PUSH2 0x1D8 JUMPI PUSH0 DUP1 REVERT JUMPDEST POP PUSH2 0x106 PUSH2 0x1E7 CALLDATASIZE PUSH1 0x4 PUSH2 0x11D7 JUMP JUMPDEST PUSH2 0xAC9 JUMP JUMPDEST CALLVALUE DUP1 ISZERO PUSH2 0x1F7 JUMPI PUSH0 DUP1 REVERT JUMPDEST POP PUSH2 0x106 PUSH2 0x206 CALLDATASIZE PUSH1 0x4 PUSH2 0x120A JUMP JUMPDEST PUSH2 0xB2F JUMP JUMPDEST CALLVALUE DUP1 ISZERO PUSH2 0x216 JUMPI PUSH0 DUP1 REVERT JUMPDEST POP PUSH0 SLOAD PUSH1 0x1 PUSH1 0x1 PUSH1 0xA0 SHL SUB AND JUMPDEST PUSH1 0x40 MLOAD PUSH1 0x1 PUSH1 0x1 PUSH1 0xA0 SHL SUB SWAP1 SWAP2 AND DUP2 MSTORE PUSH1 0x20 ADD PUSH2 0x159 JUMP JUMPDEST CALLVALUE DUP1 ISZERO PUSH2 0x246 JUMPI PUSH0 DUP1 REVERT JUMPDEST POP PUSH2 0x106 PUSH2 0x255 CALLDATASIZE PUSH1 0x4 PUSH2 0x11BC JUMP JUMPDEST PUSH2 0xBBA JUMP JUMPDEST CALLVALUE DUP1 ISZERO PUSH2 0x265 JUMPI PUSH0 DUP1 REVERT JUMPDEST POP PUSH1 0x1 SLOAD PUSH2 0x223 SWAP1 PUSH1 0x1 PUSH1 0x1 PUSH1 0xA0 SHL SUB AND DUP2 JUMP JUMPDEST CALLVALUE DUP1 ISZERO PUSH2 0x284 JUMPI PUSH0 DUP1 REVERT JUMPDEST POP PUSH2 0x106 PUSH2 0x293 CALLDATASIZE PUSH1 0x4 PUSH2 0x1221 JUMP JUMPDEST PUSH2 0xC50 JUMP JUMPDEST CALLVALUE DUP1 ISZERO PUSH2 0x2A3 JUMPI PUSH0 DUP1 REVERT JUMPDEST POP PUSH2 0x106 PUSH2 0x2B2 CALLDATASIZE PUSH1 0x4 PUSH2 0x11BC JUMP JUMPDEST PUSH2 0xC6C JUMP JUMPDEST PUSH2 0x2BF PUSH2 0xCA6 JUMP JUMPDEST PUSH1 0x1 PUSH1 0x1 PUSH1 0xA0 SHL SUB DUP3 AND PUSH2 0x309 JUMPI PUSH1 0x40 MLOAD PUSH3 0x461BCD PUSH1 0xE5 SHL DUP2 MSTORE PUSH1 0x20 PUSH1 0x4 DUP3 ADD MSTORE PUSH1 0xC PUSH1 0x24 DUP3 ADD MSTORE PUSH12 0x5A65726F2061646472657373 PUSH1 0xA0 SHL PUSH1 0x44 DUP3 ADD MSTORE PUSH1 0x64 ADD JUMPDEST PUSH1 0x40 MLOAD DUP1 SWAP2 SUB SWAP1 REVERT JUMPDEST DUP1 SELFBALANCE LT ISZERO PUSH2 0x359 JUMPI PUSH1 0x40 MLOAD PUSH3 0x461BCD PUSH1 0xE5 SHL DUP2 MSTORE PUSH1 0x20 PUSH1 0x4 DUP3 ADD MSTORE PUSH1 0x18 PUSH1 0x24 DUP3 ADD MSTORE PUSH32 0x496E73756666696369656E74204554482062616C616E63650000000000000000 PUSH1 0x44 DUP3 ADD MSTORE PUSH1 0x64 ADD PUSH2 0x300 JUMP JUMPDEST PUSH0 DUP3 PUSH1 0x1 PUSH1 0x1 PUSH1 0xA0 SHL SUB AND DUP3 PUSH1 0x40 MLOAD PUSH0 PUSH1 0x40 MLOAD DUP1 DUP4 SUB DUP2 DUP6 DUP8 GAS CALL SWAP3 POP POP POP RETURNDATASIZE DUP1 PUSH0 DUP2 EQ PUSH2 0x3A2 JUMPI PUSH1 0x40 MLOAD SWAP2 POP PUSH1 0x1F NOT PUSH1 0x3F RETURNDATASIZE ADD AND DUP3 ADD PUSH1 0x40 MSTORE RETURNDATASIZE DUP3 MSTORE RETURNDATASIZE PUSH0 PUSH1 0x20 DUP5 ADD RETURNDATACOPY PUSH2 0x3A7 JUMP JUMPDEST PUSH1 0x60 SWAP2 POP JUMPDEST POP POP SWAP1 POP DUP1 PUSH2 0x3EE JUMPI PUSH1 0x40 MLOAD PUSH3 0x461BCD PUSH1 0xE5 SHL DUP2 MSTORE PUSH1 0x20 PUSH1 0x4 DUP3 ADD MSTORE PUSH1 0x13 PUSH1 0x24 DUP3 ADD MSTORE PUSH19 0x115512081D1C985B9CD9995C8819985A5B1959 PUSH1 0x6A SHL PUSH1 0x44 DUP3 ADD MSTORE PUSH1 0x64 ADD PUSH2 0x300 JUMP JUMPDEST POP POP POP JUMP JUMPDEST PUSH2 0x3FB PUSH2 0xCD2 JUMP JUMPDEST PUSH1 0x3 SLOAD PUSH1 0xFF AND ISZERO PUSH2 0x44E JUMPI PUSH1 0x40 MLOAD PUSH3 0x461BCD PUSH1 0xE5 SHL DUP2 MSTORE PUSH1 0x20 PUSH1 0x4 DUP3 ADD MSTORE PUSH1 0x18 PUSH1 0x24 DUP3 ADD MSTORE PUSH32 0x506861726F73466C6F77526F757465723A207061757365640000000000000000 PUSH1 0x44 DUP3 ADD MSTORE PUSH1 0x64 ADD PUSH2 0x300 JUMP JUMPDEST DUP2 ISZERO DUP1 ISZERO SWAP1 PUSH2 0x45E JUMPI POP PUSH1 0x5 DUP3 GT ISZERO JUMPDEST PUSH2 0x49E JUMPI PUSH1 0x40 MLOAD PUSH3 0x461BCD PUSH1 0xE5 SHL DUP2 MSTORE PUSH1 0x20 PUSH1 0x4 DUP3 ADD MSTORE PUSH1 0x11 PUSH1 0x24 DUP3 ADD MSTORE PUSH17 0x125B9D985B1A59081A1BDC0818DBDD5B9D PUSH1 0x7A SHL PUSH1 0x44 DUP3 ADD MSTORE PUSH1 0x64 ADD PUSH2 0x300 JUMP JUMPDEST PUSH0 JUMPDEST DUP3 DUP2 LT ISZERO PUSH2 0x96E JUMPI CALLDATASIZE DUP5 DUP5 DUP4 DUP2 DUP2 LT PUSH2 0x4BB JUMPI PUSH2 0x4BB PUSH2 0x125F JUMP JUMPDEST SWAP1 POP PUSH1 0x20 MUL DUP2 ADD SWAP1 PUSH2 0x4CD SWAP2 SWAP1 PUSH2 0x1273 JUMP JUMPDEST SWAP1 POP PUSH1 0x4 PUSH0 PUSH2 0x4DF PUSH1 0x20 DUP5 ADD DUP5 PUSH2 0x11BC JUMP JUMPDEST PUSH1 0x1 PUSH1 0x1 PUSH1 0xA0 SHL SUB AND DUP2 MSTORE PUSH1 0x20 DUP2 ADD SWAP2 SWAP1 SWAP2 MSTORE PUSH1 0x40 ADD PUSH0 KECCAK256 SLOAD PUSH1 0xFF AND PUSH2 0x504 DUP4 PUSH2 0xD00 JUMP JUMPDEST PUSH1 0x40 MLOAD PUSH1 0x20 ADD PUSH2 0x514 SWAP2 SWAP1 PUSH2 0x12A8 JUMP JUMPDEST PUSH1 0x40 MLOAD PUSH1 0x20 DUP2 DUP4 SUB SUB DUP2 MSTORE SWAP1 PUSH1 0x40 MSTORE SWAP1 PUSH2 0x541 JUMPI PUSH1 0x40 MLOAD PUSH3 0x461BCD PUSH1 0xE5 SHL DUP2 MSTORE PUSH1 0x4 ADD PUSH2 0x300 SWAP2 SWAP1 PUSH2 0x12D9 JUMP JUMPDEST POP PUSH2 0x552 PUSH1 0xA0 DUP3 ADD PUSH1 0x80 DUP4 ADD PUSH2 0x119C JUMP JUMPDEST PUSH2 0x761 JUMPI PUSH2 0x580 CALLER ADDRESS PUSH1 0x60 DUP5 ADD DUP1 CALLDATALOAD SWAP1 PUSH2 0x56F SWAP1 PUSH1 0x40 DUP8 ADD PUSH2 0x11BC JUMP JUMPDEST PUSH1 0x1 PUSH1 0x1 PUSH1 0xA0 SHL SUB AND SWAP3 SWAP2 SWAP1 PUSH2 0xD90 JUMP JUMPDEST PUSH0 PUSH2 0x2710 PUSH1 0x2 SLOAD DUP4 PUSH1 0x60 ADD CALLDATALOAD PUSH2 0x596 SWAP2 SWAP1 PUSH2 0x1322 JUMP JUMPDEST PUSH2 0x5A0 SWAP2 SWAP1 PUSH2 0x1339 JUMP JUMPDEST SWAP1 POP DUP1 ISZERO PUSH2 0x62C JUMPI PUSH1 0x1 SLOAD PUSH2 0x5D9 SWAP1 PUSH1 0x1 PUSH1 0x1 PUSH1 0xA0 SHL SUB AND DUP3 PUSH2 0x5C9 PUSH1 0x60 DUP7 ADD PUSH1 0x40 DUP8 ADD PUSH2 0x11BC JUMP JUMPDEST PUSH1 0x1 PUSH1 0x1 PUSH1 0xA0 SHL SUB AND SWAP2 SWAP1 PUSH2 0xDCC JUMP JUMPDEST PUSH2 0x5E9 PUSH1 0x60 DUP4 ADD PUSH1 0x40 DUP5 ADD PUSH2 0x11BC JUMP JUMPDEST PUSH1 0x1 PUSH1 0x1 PUSH1 0xA0 SHL SUB AND PUSH32 0x9F01C68C1DF72199426E5DC03E009238218BF665F0FD62DC1A25B82C882D581B DUP3 PUSH1 0x40 MLOAD PUSH2 0x623 SWAP2 DUP2 MSTORE PUSH1 0x20 ADD SWAP1 JUMP JUMPDEST PUSH1 0x40 MLOAD DUP1 SWAP2 SUB SWAP1 LOG2 JUMPDEST PUSH0 PUSH2 0x63B DUP3 PUSH1 0x60 DUP6 ADD CALLDATALOAD PUSH2 0x1358 JUMP JUMPDEST SWAP1 POP PUSH2 0x66E PUSH2 0x64D PUSH1 0x20 DUP6 ADD DUP6 PUSH2 0x11BC JUMP JUMPDEST DUP3 PUSH2 0x65E PUSH1 0x60 DUP8 ADD PUSH1 0x40 DUP9 ADD PUSH2 0x11BC JUMP JUMPDEST PUSH1 0x1 PUSH1 0x1 PUSH1 0xA0 SHL SUB AND SWAP2 SWAP1 PUSH2 0xE01 JUMP JUMPDEST PUSH0 DUP1 PUSH2 0x67D PUSH1 0x20 DUP7 ADD DUP7 PUSH2 0x11BC JUMP JUMPDEST PUSH1 0x1 PUSH1 0x1 PUSH1 0xA0 SHL SUB AND PUSH2 0x693 PUSH1 0x20 DUP8 ADD DUP8 PUSH2 0x136B JUMP JUMPDEST PUSH1 0x40 MLOAD PUSH2 0x6A1 SWAP3 SWAP2 SWAP1 PUSH2 0x13B5 JUMP JUMPDEST PUSH0 PUSH1 0x40 MLOAD DUP1 DUP4 SUB DUP2 PUSH0 DUP7 GAS CALL SWAP2 POP POP RETURNDATASIZE DUP1 PUSH0 DUP2 EQ PUSH2 0x6DA JUMPI PUSH1 0x40 MLOAD SWAP2 POP PUSH1 0x1F NOT PUSH1 0x3F RETURNDATASIZE ADD AND DUP3 ADD PUSH1 0x40 MSTORE RETURNDATASIZE DUP3 MSTORE RETURNDATASIZE PUSH0 PUSH1 0x20 DUP5 ADD RETURNDATACOPY PUSH2 0x6DF JUMP JUMPDEST PUSH1 0x60 SWAP2 POP JUMPDEST POP SWAP2 POP SWAP2 POP DUP2 PUSH2 0x737 JUMPI DUP1 MLOAD ISZERO PUSH2 0x6F8 JUMPI DUP1 MLOAD DUP2 PUSH1 0x20 ADD REVERT JUMPDEST PUSH2 0x701 DUP7 PUSH2 0xD00 JUMP JUMPDEST PUSH1 0x40 MLOAD PUSH1 0x20 ADD PUSH2 0x711 SWAP2 SWAP1 PUSH2 0x13C4 JUMP JUMPDEST PUSH1 0x40 DUP1 MLOAD PUSH1 0x1F NOT DUP2 DUP5 SUB ADD DUP2 MSTORE SWAP1 DUP3 SWAP1 MSTORE PUSH3 0x461BCD PUSH1 0xE5 SHL DUP3 MSTORE PUSH2 0x300 SWAP2 PUSH1 0x4 ADD PUSH2 0x12D9 JUMP JUMPDEST PUSH2 0x758 PUSH2 0x747 PUSH1 0x20 DUP8 ADD DUP8 PUSH2 0x11BC JUMP JUMPDEST PUSH0 PUSH2 0x65E PUSH1 0x60 DUP10 ADD PUSH1 0x40 DUP11 ADD PUSH2 0x11BC JUMP JUMPDEST POP POP POP POP PUSH2 0x965 JUMP JUMPDEST DUP1 PUSH1 0x60 ADD CALLDATALOAD CALLVALUE LT ISZERO PUSH2 0x7B5 JUMPI PUSH1 0x40 MLOAD PUSH3 0x461BCD PUSH1 0xE5 SHL DUP2 MSTORE PUSH1 0x20 PUSH1 0x4 DUP3 ADD MSTORE PUSH1 0x19 PUSH1 0x24 DUP3 ADD MSTORE PUSH32 0x496E73756666696369656E74206E61746976652076616C756500000000000000 PUSH1 0x44 DUP3 ADD MSTORE PUSH1 0x64 ADD PUSH2 0x300 JUMP JUMPDEST PUSH0 PUSH2 0x2710 PUSH1 0x2 SLOAD DUP4 PUSH1 0x60 ADD CALLDATALOAD PUSH2 0x7CB SWAP2 SWAP1 PUSH2 0x1322 JUMP JUMPDEST PUSH2 0x7D5 SWAP2 SWAP1 PUSH2 0x1339 JUMP JUMPDEST SWAP1 POP DUP1 ISZERO PUSH2 0x8AA JUMPI PUSH1 0x1 SLOAD PUSH1 0x40 MLOAD PUSH0 SWAP2 PUSH1 0x1 PUSH1 0x1 PUSH1 0xA0 SHL SUB AND SWAP1 DUP4 SWAP1 DUP4 DUP2 DUP2 DUP2 DUP6 DUP8 GAS CALL SWAP3 POP POP POP RETURNDATASIZE DUP1 PUSH0 DUP2 EQ PUSH2 0x827 JUMPI PUSH1 0x40 MLOAD SWAP2 POP PUSH1 0x1F NOT PUSH1 0x3F RETURNDATASIZE ADD AND DUP3 ADD PUSH1 0x40 MSTORE RETURNDATASIZE DUP3 MSTORE RETURNDATASIZE PUSH0 PUSH1 0x20 DUP5 ADD RETURNDATACOPY PUSH2 0x82C JUMP JUMPDEST PUSH1 0x60 SWAP2 POP JUMPDEST POP POP SWAP1 POP DUP1 PUSH2 0x873 JUMPI PUSH1 0x40 MLOAD PUSH3 0x461BCD PUSH1 0xE5 SHL DUP2 MSTORE PUSH1 0x20 PUSH1 0x4 DUP3 ADD MSTORE PUSH1 0x13 PUSH1 0x24 DUP3 ADD MSTORE PUSH19 0x119959481D1C985B9CD9995C8819985A5B1959 PUSH1 0x6A SHL PUSH1 0x44 DUP3 ADD MSTORE PUSH1 0x64 ADD PUSH2 0x300 JUMP JUMPDEST PUSH1 0x40 MLOAD DUP3 DUP2 MSTORE PUSH0 SWAP1 PUSH32 0x9F01C68C1DF72199426E5DC03E009238218BF665F0FD62DC1A25B82C882D581B SWAP1 PUSH1 0x20 ADD PUSH1 0x40 MLOAD DUP1 SWAP2 SUB SWAP1 LOG2 POP JUMPDEST PUSH0 PUSH2 0x8B9 DUP3 PUSH1 0x60 DUP6 ADD CALLDATALOAD PUSH2 0x1358 JUMP JUMPDEST SWAP1 POP PUSH0 DUP1 PUSH2 0x8CA PUSH1 0x20 DUP7 ADD DUP7 PUSH2 0x11BC JUMP JUMPDEST PUSH1 0x1 PUSH1 0x1 PUSH1 0xA0 SHL SUB AND DUP4 PUSH2 0x8E1 PUSH1 0x20 DUP9 ADD DUP9 PUSH2 0x136B JUMP JUMPDEST PUSH1 0x40 MLOAD PUSH2 0x8EF SWAP3 SWAP2 SWAP1 PUSH2 0x13B5 JUMP JUMPDEST PUSH0 PUSH1 0x40 MLOAD DUP1 DUP4 SUB DUP2 DUP6 DUP8 GAS CALL SWAP3 POP POP POP RETURNDATASIZE DUP1 PUSH0 DUP2 EQ PUSH2 0x929 JUMPI PUSH1 0x40 MLOAD SWAP2 POP PUSH1 0x1F NOT PUSH1 0x3F RETURNDATASIZE ADD AND DUP3 ADD PUSH1 0x40 MSTORE RETURNDATASIZE DUP3 MSTORE RETURNDATASIZE PUSH0 PUSH1 0x20 DUP5 ADD RETURNDATACOPY PUSH2 0x92E JUMP JUMPDEST PUSH1 0x60 SWAP2 POP JUMPDEST POP SWAP2 POP SWAP2 POP DUP2 PUSH2 0x960 JUMPI DUP1 MLOAD ISZERO PUSH2 0x947 JUMPI DUP1 MLOAD DUP2 PUSH1 0x20 ADD REVERT JUMPDEST PUSH2 0x950 DUP7 PUSH2 0xD00 JUMP JUMPDEST PUSH1 0x40 MLOAD PUSH1 0x20 ADD PUSH2 0x711 SWAP2 SWAP1 PUSH2 0x13F5 JUMP JUMPDEST POP POP POP POP JUMPDEST POP PUSH1 0x1 ADD PUSH2 0x4A0 JUMP JUMPDEST POP DUP1 CALLER PUSH32 0x50630284EA85C8C17BDA3CEDCCAB685246A1036371DB211589148A4289ED3456 DUP6 DUP6 PUSH0 DUP2 PUSH2 0x9A2 JUMPI PUSH2 0x9A2 PUSH2 0x125F JUMP JUMPDEST SWAP1 POP PUSH1 0x20 MUL DUP2 ADD SWAP1 PUSH2 0x9B4 SWAP2 SWAP1 PUSH2 0x1273 JUMP JUMPDEST PUSH2 0x9C5 SWAP1 PUSH1 0x60 DUP2 ADD SWAP1 PUSH1 0x40 ADD PUSH2 0x11BC JUMP JUMPDEST DUP7 DUP7 PUSH0 DUP2 DUP2 LT PUSH2 0x9D7 JUMPI PUSH2 0x9D7 PUSH2 0x125F JUMP JUMPDEST SWAP1 POP PUSH1 0x20 MUL DUP2 ADD SWAP1 PUSH2 0x9E9 SWAP2 SWAP1 PUSH2 0x1273 JUMP JUMPDEST PUSH1 0x40 DUP1 MLOAD PUSH1 0x1 PUSH1 0x1 PUSH1 0xA0 SHL SUB SWAP1 SWAP4 AND DUP4 MSTORE PUSH1 0x60 SWAP2 DUP3 ADD CALLDATALOAD PUSH1 0x20 DUP5 ADD MSTORE DUP3 ADD DUP8 SWAP1 MSTORE ADD PUSH1 0x40 MLOAD DUP1 SWAP2 SUB SWAP1 LOG3 PUSH2 0x3EE PUSH1 0x1 PUSH32 0x9B779B17422D0DF92223018B32B4D1FA46E071723D6817E2486D003BECC55F00 SSTORE JUMP JUMPDEST PUSH2 0xA44 PUSH2 0xCA6 JUMP JUMPDEST PUSH1 0x3 DUP1 SLOAD PUSH1 0xFF NOT AND DUP3 ISZERO DUP1 ISZERO SWAP2 SWAP1 SWAP2 OR SWAP1 SWAP2 SSTORE PUSH2 0xA88 JUMPI PUSH1 0x40 MLOAD CALLER SWAP1 PUSH32 0x62E78CEA01BEE320CD4E420270B5EA74000D11B0C9F74754EBDBFC544B05A258 SWAP1 PUSH0 SWAP1 LOG2 POP JUMP JUMPDEST PUSH1 0x40 MLOAD CALLER SWAP1 PUSH32 0x5DB9EE0A495BF2E6FF9C91A7834C1BA4FDD244A5E8AA4E537BD38AEAE4B073AA SWAP1 PUSH0 SWAP1 LOG2 JUMPDEST POP JUMP JUMPDEST PUSH2 0xABE PUSH2 0xCA6 JUMP JUMPDEST PUSH2 0xAC7 PUSH0 PUSH2 0xE53 JUMP JUMPDEST JUMP JUMPDEST PUSH2 0xAD1 PUSH2 0xCA6 JUMP JUMPDEST PUSH1 0x1 PUSH1 0x1 PUSH1 0xA0 SHL SUB DUP3 AND PUSH0 DUP2 DUP2 MSTORE PUSH1 0x4 PUSH1 0x20 SWAP1 DUP2 MSTORE PUSH1 0x40 SWAP2 DUP3 SWAP1 KECCAK256 DUP1 SLOAD PUSH1 0xFF NOT AND DUP6 ISZERO ISZERO SWAP1 DUP2 OR SWAP1 SWAP2 SSTORE SWAP2 MLOAD SWAP2 DUP3 MSTORE PUSH32 0x4761FDD4345C763665D7B0E62A745097BFCC206B1D336DAEA12CB997CC1E81B SWAP2 ADD PUSH1 0x40 MLOAD DUP1 SWAP2 SUB SWAP1 LOG2 POP POP JUMP JUMPDEST PUSH2 0xB37 PUSH2 0xCA6 JUMP JUMPDEST PUSH1 0x64 DUP2 GT ISZERO PUSH2 0xB7F JUMPI PUSH1 0x40 MLOAD PUSH3 0x461BCD PUSH1 0xE5 SHL DUP2 MSTORE PUSH1 0x20 PUSH1 0x4 DUP3 ADD MSTORE PUSH1 0x14 PUSH1 0x24 DUP3 ADD MSTORE PUSH20 0x4665652063616E6E6F7420657863656564203125 PUSH1 0x60 SHL PUSH1 0x44 DUP3 ADD MSTORE PUSH1 0x64 ADD PUSH2 0x300 JUMP JUMPDEST PUSH1 0x2 DUP2 SWAP1 SSTORE PUSH1 0x40 MLOAD DUP2 DUP2 MSTORE PUSH32 0x399AA81C69E33ACC2FF42D0F7A0809E6BF4C10FF3C3A7E040B12FEDC14602F2 SWAP1 PUSH1 0x20 ADD PUSH1 0x40 MLOAD DUP1 SWAP2 SUB SWAP1 LOG1 POP JUMP JUMPDEST PUSH2 0xBC2 PUSH2 0xCA6 JUMP JUMPDEST PUSH1 0x1 PUSH1 0x1 PUSH1 0xA0 SHL SUB DUP2 AND PUSH2 0xC07 JUMPI PUSH1 0x40 MLOAD PUSH3 0x461BCD PUSH1 0xE5 SHL DUP2 MSTORE PUSH1 0x20 PUSH1 0x4 DUP3 ADD MSTORE PUSH1 0xC PUSH1 0x24 DUP3 ADD MSTORE PUSH12 0x5A65726F2061646472657373 PUSH1 0xA0 SHL PUSH1 0x44 DUP3 ADD MSTORE PUSH1 0x64 ADD PUSH2 0x300 JUMP JUMPDEST PUSH1 0x1 DUP1 SLOAD PUSH1 0x1 PUSH1 0x1 PUSH1 0xA0 SHL SUB NOT AND PUSH1 0x1 PUSH1 0x1 PUSH1 0xA0 SHL SUB DUP4 AND SWAP1 DUP2 OR SWAP1 SWAP2 SSTORE PUSH1 0x40 MLOAD PUSH32 0xE5693914D19C789BDEE50A362998C0BC8D035A835F9871DA5D51152F0582C34F SWAP1 PUSH0 SWAP1 LOG2 POP JUMP JUMPDEST PUSH2 0xC58 PUSH2 0xCA6 JUMP JUMPDEST PUSH2 0x3EE PUSH1 0x1 PUSH1 0x1 PUSH1 0xA0 SHL SUB DUP5 AND DUP4 DUP4 PUSH2 0xDCC JUMP JUMPDEST PUSH2 0xC74 PUSH2 0xCA6 JUMP JUMPDEST PUSH1 0x1 PUSH1 0x1 PUSH1 0xA0 SHL SUB DUP2 AND PUSH2 0xC9D JUMPI PUSH1 0x40 MLOAD PUSH4 0x1E4FBDF7 PUSH1 0xE0 SHL DUP2 MSTORE PUSH0 PUSH1 0x4 DUP3 ADD MSTORE PUSH1 0x24 ADD PUSH2 0x300 JUMP JUMPDEST PUSH2 0xAB3 DUP2 PUSH2 0xE53 JUMP JUMPDEST PUSH0 SLOAD PUSH1 0x1 PUSH1 0x1 PUSH1 0xA0 SHL SUB AND CALLER EQ PUSH2 0xAC7 JUMPI PUSH1 0x40 MLOAD PUSH4 0x118CDAA7 PUSH1 0xE0 SHL DUP2 MSTORE CALLER PUSH1 0x4 DUP3 ADD MSTORE PUSH1 0x24 ADD PUSH2 0x300 JUMP JUMPDEST PUSH2 0xCDA PUSH2 0xEA2 JUMP JUMPDEST PUSH1 0x2 PUSH32 0x9B779B17422D0DF92223018B32B4D1FA46E071723D6817E2486D003BECC55F00 SSTORE JUMP JUMPDEST PUSH1 0x60 PUSH0 PUSH2 0xD0C DUP4 PUSH2 0xEE4 JUMP JUMPDEST PUSH1 0x1 ADD SWAP1 POP PUSH0 DUP2 PUSH8 0xFFFFFFFFFFFFFFFF DUP2 GT ISZERO PUSH2 0xD2B JUMPI PUSH2 0xD2B PUSH2 0x1414 JUMP JUMPDEST PUSH1 0x40 MLOAD SWAP1 DUP1 DUP3 MSTORE DUP1 PUSH1 0x1F ADD PUSH1 0x1F NOT AND PUSH1 0x20 ADD DUP3 ADD PUSH1 0x40 MSTORE DUP1 ISZERO PUSH2 0xD55 JUMPI PUSH1 0x20 DUP3 ADD DUP2 DUP1 CALLDATASIZE DUP4 CALLDATACOPY ADD SWAP1 POP JUMPDEST POP SWAP1 POP DUP2 DUP2 ADD PUSH1 0x20 ADD JUMPDEST PUSH0 NOT ADD PUSH16 0x181899199A1A9B1B9C1CB0B131B232B3 PUSH1 0x81 SHL PUSH1 0xA DUP7 MOD BYTE DUP2 MSTORE8 PUSH1 0xA DUP6 DIV SWAP5 POP DUP5 PUSH2 0xD5F JUMPI POP SWAP4 SWAP3 POP POP POP JUMP JUMPDEST PUSH2 0xD9E DUP5 DUP5 DUP5 DUP5 PUSH1 0x1 PUSH2 0xFBC JUMP JUMPDEST PUSH2 0xDC6 JUMPI PUSH1 0x40 MLOAD PUSH4 0x5274AFE7 PUSH1 0xE0 SHL DUP2 MSTORE PUSH1 0x1 PUSH1 0x1 PUSH1 0xA0 SHL SUB DUP6 AND PUSH1 0x4 DUP3 ADD MSTORE PUSH1 0x24 ADD PUSH2 0x300 JUMP JUMPDEST POP POP POP POP JUMP JUMPDEST PUSH2 0xDD9 DUP4 DUP4 DUP4 PUSH1 0x1 PUSH2 0x1029 JUMP JUMPDEST PUSH2 0x3EE JUMPI PUSH1 0x40 MLOAD PUSH4 0x5274AFE7 PUSH1 0xE0 SHL DUP2 MSTORE PUSH1 0x1 PUSH1 0x1 PUSH1 0xA0 SHL SUB DUP5 AND PUSH1 0x4 DUP3 ADD MSTORE PUSH1 0x24 ADD PUSH2 0x300 JUMP JUMPDEST PUSH2 0xE0D DUP4 DUP4 DUP4 PUSH0 PUSH2 0x108B JUMP JUMPDEST PUSH2 0x3EE JUMPI PUSH2 0xE1E DUP4 DUP4 PUSH0 PUSH1 0x1 PUSH2 0x108B JUMP JUMPDEST PUSH2 0xE46 JUMPI PUSH1 0x40 MLOAD PUSH4 0x5274AFE7 PUSH1 0xE0 SHL DUP2 MSTORE PUSH1 0x1 PUSH1 0x1 PUSH1 0xA0 SHL SUB DUP5 AND PUSH1 0x4 DUP3 ADD MSTORE PUSH1 0x24 ADD PUSH2 0x300 JUMP JUMPDEST PUSH2 0xDD9 DUP4 DUP4 DUP4 PUSH1 0x1 PUSH2 0x108B JUMP JUMPDEST PUSH0 DUP1 SLOAD PUSH1 0x1 PUSH1 0x1 PUSH1 0xA0 SHL SUB DUP4 DUP2 AND PUSH1 0x1 PUSH1 0x1 PUSH1 0xA0 SHL SUB NOT DUP4 AND DUP2 OR DUP5 SSTORE PUSH1 0x40 MLOAD SWAP2 SWAP1 SWAP3 AND SWAP3 DUP4 SWAP2 PUSH32 0x8BE0079C531659141344CD1FD0A4F28419497F9722A3DAAFE3B4186F6B6457E0 SWAP2 SWAP1 LOG3 POP POP JUMP JUMPDEST PUSH32 0x9B779B17422D0DF92223018B32B4D1FA46E071723D6817E2486D003BECC55F00 SLOAD PUSH1 0x2 SUB PUSH2 0xAC7 JUMPI PUSH1 0x40 MLOAD PUSH4 0x3EE5AEB5 PUSH1 0xE0 SHL DUP2 MSTORE PUSH1 0x4 ADD PUSH1 0x40 MLOAD DUP1 SWAP2 SUB SWAP1 REVERT JUMPDEST PUSH0 DUP1 PUSH19 0x184F03E93FF9F4DAA797ED6E38ED64BF6A1F01 PUSH1 0x40 SHL DUP4 LT PUSH2 0xF22 JUMPI PUSH19 0x184F03E93FF9F4DAA797ED6E38ED64BF6A1F01 PUSH1 0x40 SHL DUP4 DIV SWAP3 POP PUSH1 0x40 ADD JUMPDEST PUSH14 0x4EE2D6D415B85ACEF8100000000 DUP4 LT PUSH2 0xF4E JUMPI PUSH14 0x4EE2D6D415B85ACEF8100000000 DUP4 DIV SWAP3 POP PUSH1 0x20 ADD JUMPDEST PUSH7 0x2386F26FC10000 DUP4 LT PUSH2 0xF6C JUMPI PUSH7 0x2386F26FC10000 DUP4 DIV SWAP3 POP PUSH1 0x10 ADD JUMPDEST PUSH4 0x5F5E100 DUP4 LT PUSH2 0xF84 JUMPI PUSH4 0x5F5E100 DUP4 DIV SWAP3 POP PUSH1 0x8 ADD JUMPDEST PUSH2 0x2710 DUP4 LT PUSH2 0xF98 JUMPI PUSH2 0x2710 DUP4 DIV SWAP3 POP PUSH1 0x4 ADD JUMPDEST PUSH1 0x64 DUP4 LT PUSH2 0xFAA JUMPI PUSH1 0x64 DUP4 DIV SWAP3 POP PUSH1 0x2 ADD JUMPDEST PUSH1 0xA DUP4 LT PUSH2 0xFB6 JUMPI PUSH1 0x1 ADD JUMPDEST SWAP3 SWAP2 POP POP JUMP JUMPDEST PUSH1 0x40 MLOAD PUSH4 0x23B872DD PUSH1 0xE0 SHL PUSH0 DUP2 DUP2 MSTORE PUSH1 0x1 PUSH1 0x1 PUSH1 0xA0 SHL SUB DUP8 DUP2 AND PUSH1 0x4 MSTORE DUP7 AND PUSH1 0x24 MSTORE PUSH1 0x44 DUP6 SWAP1 MSTORE SWAP2 PUSH1 0x20 DUP4 PUSH1 0x64 DUP2 DUP1 DUP13 GAS CALL SWAP3 POP PUSH1 0x1 PUSH0 MLOAD EQ DUP4 AND PUSH2 0x1018 JUMPI DUP4 DUP4 ISZERO AND ISZERO PUSH2 0x100C JUMPI RETURNDATASIZE PUSH0 DUP3 RETURNDATACOPY RETURNDATASIZE DUP2 REVERT JUMPDEST PUSH0 DUP9 EXTCODESIZE GT RETURNDATASIZE ISZERO AND DUP4 AND SWAP3 POP JUMPDEST PUSH1 0x40 MSTORE POP PUSH0 PUSH1 0x60 MSTORE SWAP6 SWAP5 POP POP POP POP POP JUMP JUMPDEST PUSH1 0x40 MLOAD PUSH4 0xA9059CBB PUSH1 0xE0 SHL PUSH0 DUP2 DUP2 MSTORE PUSH1 0x1 PUSH1 0x1 PUSH1 0xA0 SHL SUB DUP7 AND PUSH1 0x4 MSTORE PUSH1 0x24 DUP6 SWAP1 MSTORE SWAP2 PUSH1 0x20 DUP4 PUSH1 0x44 DUP2 DUP1 DUP12 GAS CALL SWAP3 POP PUSH1 0x1 PUSH0 MLOAD EQ DUP4 AND PUSH2 0x107F JUMPI DUP4 DUP4 ISZERO AND ISZERO PUSH2 0x1073 JUMPI RETURNDATASIZE PUSH0 DUP3 RETURNDATACOPY RETURNDATASIZE DUP2 REVERT JUMPDEST PUSH0 DUP8 EXTCODESIZE GT RETURNDATASIZE ISZERO AND DUP4 AND SWAP3 POP JUMPDEST PUSH1 0x40 MSTORE POP SWAP5 SWAP4 POP POP POP POP JUMP JUMPDEST PUSH1 0x40 MLOAD PUSH4 0x95EA7B3 PUSH1 0xE0 SHL PUSH0 DUP2 DUP2 MSTORE PUSH1 0x1 PUSH1 0x1 PUSH1 0xA0 SHL SUB DUP7 AND PUSH1 0x4 MSTORE PUSH1 0x24 DUP6 SWAP1 MSTORE SWAP2 PUSH1 0x20 DUP4 PUSH1 0x44 DUP2 DUP1 DUP12 GAS CALL SWAP3 POP PUSH1 0x1 PUSH0 MLOAD EQ DUP4 AND PUSH2 0x107F JUMPI DUP4 DUP4 ISZERO AND ISZERO PUSH2 0x1073 JUMPI RETURNDATASIZE PUSH0 DUP3 RETURNDATACOPY RETURNDATASIZE DUP2 REVERT JUMPDEST PUSH1 0x1 PUSH1 0x1 PUSH1 0xA0 SHL SUB DUP2 AND DUP2 EQ PUSH2 0xAB3 JUMPI PUSH0 DUP1 REVERT JUMPDEST PUSH0 DUP1 PUSH1 0x40 DUP4 DUP6 SUB SLT ISZERO PUSH2 0x10FA JUMPI PUSH0 DUP1 REVERT JUMPDEST DUP3 CALLDATALOAD PUSH2 0x1105 DUP2 PUSH2 0x10D5 JUMP JUMPDEST SWAP5 PUSH1 0x20 SWAP4 SWAP1 SWAP4 ADD CALLDATALOAD SWAP4 POP POP POP JUMP JUMPDEST PUSH0 DUP1 PUSH0 PUSH1 0x40 DUP5 DUP7 SUB SLT ISZERO PUSH2 0x1125 JUMPI PUSH0 DUP1 REVERT JUMPDEST DUP4 CALLDATALOAD PUSH8 0xFFFFFFFFFFFFFFFF DUP2 GT ISZERO PUSH2 0x113B JUMPI PUSH0 DUP1 REVERT JUMPDEST DUP5 ADD PUSH1 0x1F DUP2 ADD DUP7 SGT PUSH2 0x114B JUMPI PUSH0 DUP1 REVERT JUMPDEST DUP1 CALLDATALOAD PUSH8 0xFFFFFFFFFFFFFFFF DUP2 GT ISZERO PUSH2 0x1161 JUMPI PUSH0 DUP1 REVERT JUMPDEST DUP7 PUSH1 0x20 DUP3 PUSH1 0x5 SHL DUP5 ADD ADD GT ISZERO PUSH2 0x1175 JUMPI PUSH0 DUP1 REVERT JUMPDEST PUSH1 0x20 SWAP2 DUP3 ADD SWAP8 SWAP1 SWAP7 POP SWAP5 ADD CALLDATALOAD SWAP4 SWAP3 POP POP POP JUMP JUMPDEST DUP1 CALLDATALOAD DUP1 ISZERO ISZERO DUP2 EQ PUSH2 0x1197 JUMPI PUSH0 DUP1 REVERT JUMPDEST SWAP2 SWAP1 POP JUMP JUMPDEST PUSH0 PUSH1 0x20 DUP3 DUP5 SUB SLT ISZERO PUSH2 0x11AC JUMPI PUSH0 DUP1 REVERT JUMPDEST PUSH2 0x11B5 DUP3 PUSH2 0x1188 JUMP JUMPDEST SWAP4 SWAP3 POP POP POP JUMP JUMPDEST PUSH0 PUSH1 0x20 DUP3 DUP5 SUB SLT ISZERO PUSH2 0x11CC JUMPI PUSH0 DUP1 REVERT JUMPDEST DUP2 CALLDATALOAD PUSH2 0x11B5 DUP2 PUSH2 0x10D5 JUMP JUMPDEST PUSH0 DUP1 PUSH1 0x40 DUP4 DUP6 SUB SLT ISZERO PUSH2 0x11E8 JUMPI PUSH0 DUP1 REVERT JUMPDEST DUP3 CALLDATALOAD PUSH2 0x11F3 DUP2 PUSH2 0x10D5 JUMP JUMPDEST SWAP2 POP PUSH2 0x1201 PUSH1 0x20 DUP5 ADD PUSH2 0x1188 JUMP JUMPDEST SWAP1 POP SWAP3 POP SWAP3 SWAP1 POP JUMP JUMPDEST PUSH0 PUSH1 0x20 DUP3 DUP5 SUB SLT ISZERO PUSH2 0x121A JUMPI PUSH0 DUP1 REVERT JUMPDEST POP CALLDATALOAD SWAP2 SWAP1 POP JUMP JUMPDEST PUSH0 DUP1 PUSH0 PUSH1 0x60 DUP5 DUP7 SUB SLT ISZERO PUSH2 0x1233 JUMPI PUSH0 DUP1 REVERT JUMPDEST DUP4 CALLDATALOAD PUSH2 0x123E DUP2 PUSH2 0x10D5 JUMP JUMPDEST SWAP3 POP PUSH1 0x20 DUP5 ADD CALLDATALOAD PUSH2 0x124E DUP2 PUSH2 0x10D5 JUMP JUMPDEST SWAP3 SWAP6 SWAP3 SWAP5 POP POP POP PUSH1 0x40 SWAP2 SWAP1 SWAP2 ADD CALLDATALOAD SWAP1 JUMP JUMPDEST PUSH4 0x4E487B71 PUSH1 0xE0 SHL PUSH0 MSTORE PUSH1 0x32 PUSH1 0x4 MSTORE PUSH1 0x24 PUSH0 REVERT JUMPDEST PUSH0 DUP3 CALLDATALOAD PUSH1 0x9E NOT DUP4 CALLDATASIZE SUB ADD DUP2 SLT PUSH2 0x1287 JUMPI PUSH0 DUP1 REVERT JUMPDEST SWAP2 SWAP1 SWAP2 ADD SWAP3 SWAP2 POP POP JUMP JUMPDEST PUSH0 DUP2 MLOAD DUP1 PUSH1 0x20 DUP5 ADD DUP6 MCOPY PUSH0 SWAP4 ADD SWAP3 DUP4 MSTORE POP SWAP1 SWAP2 SWAP1 POP JUMP JUMPDEST PUSH32 0x556E617070726F766564206164617074657220617420686F7020000000000000 DUP2 MSTORE PUSH0 PUSH2 0x11B5 PUSH1 0x1A DUP4 ADD DUP5 PUSH2 0x1291 JUMP JUMPDEST PUSH1 0x20 DUP2 MSTORE PUSH0 DUP3 MLOAD DUP1 PUSH1 0x20 DUP5 ADD MSTORE DUP1 PUSH1 0x20 DUP6 ADD PUSH1 0x40 DUP6 ADD MCOPY PUSH0 PUSH1 0x40 DUP3 DUP6 ADD ADD MSTORE PUSH1 0x40 PUSH1 0x1F NOT PUSH1 0x1F DUP4 ADD AND DUP5 ADD ADD SWAP2 POP POP SWAP3 SWAP2 POP POP JUMP JUMPDEST PUSH4 0x4E487B71 PUSH1 0xE0 SHL PUSH0 MSTORE PUSH1 0x11 PUSH1 0x4 MSTORE PUSH1 0x24 PUSH0 REVERT JUMPDEST DUP1 DUP3 MUL DUP2 ISZERO DUP3 DUP3 DIV DUP5 EQ OR PUSH2 0xFB6 JUMPI PUSH2 0xFB6 PUSH2 0x130E JUMP JUMPDEST PUSH0 DUP3 PUSH2 0x1353 JUMPI PUSH4 0x4E487B71 PUSH1 0xE0 SHL PUSH0 MSTORE PUSH1 0x12 PUSH1 0x4 MSTORE PUSH1 0x24 PUSH0 REVERT JUMPDEST POP DIV SWAP1 JUMP JUMPDEST DUP2 DUP2 SUB DUP2 DUP2 GT ISZERO PUSH2 0xFB6 JUMPI PUSH2 0xFB6 PUSH2 0x130E JUMP JUMPDEST PUSH0 DUP1 DUP4 CALLDATALOAD PUSH1 0x1E NOT DUP5 CALLDATASIZE SUB ADD DUP2 SLT PUSH2 0x1380 JUMPI PUSH0 DUP1 REVERT JUMPDEST DUP4 ADD DUP1 CALLDATALOAD SWAP2 POP PUSH8 0xFFFFFFFFFFFFFFFF DUP3 GT ISZERO PUSH2 0x139A JUMPI PUSH0 DUP1 REVERT JUMPDEST PUSH1 0x20 ADD SWAP2 POP CALLDATASIZE DUP2 SWAP1 SUB DUP3 SGT ISZERO PUSH2 0x13AE JUMPI PUSH0 DUP1 REVERT JUMPDEST SWAP3 POP SWAP3 SWAP1 POP JUMP JUMPDEST DUP2 DUP4 DUP3 CALLDATACOPY PUSH0 SWAP2 ADD SWAP1 DUP2 MSTORE SWAP2 SWAP1 POP JUMP JUMPDEST PUSH4 0x2437B81 PUSH1 0xE5 SHL DUP2 MSTORE PUSH0 PUSH2 0x13DC PUSH1 0x4 DUP4 ADD DUP5 PUSH2 0x1291 JUMP JUMPDEST PUSH9 0x81C995D995C9D1959 PUSH1 0xBA SHL DUP2 MSTORE PUSH1 0x9 ADD SWAP4 SWAP3 POP POP POP JUMP JUMPDEST PUSH11 0x2730BA34BB32903437B81 PUSH1 0xAD SHL DUP2 MSTORE PUSH0 PUSH2 0x13DC PUSH1 0xB DUP4 ADD DUP5 PUSH2 0x1291 JUMP JUMPDEST PUSH4 0x4E487B71 PUSH1 0xE0 SHL PUSH0 MSTORE PUSH1 0x41 PUSH1 0x4 MSTORE PUSH1 0x24 PUSH0 REVERT INVALID LOG2 PUSH5 0x6970667358 0x22 SLT KECCAK256 PUSH1 0x23 0x27 0xEF 0xC PUSH18 0xDED9024D99351A4A167E2FA237C55C433134 SELFDESTRUCT PUSH5 0x791B4E51C 0xD2 PUSH5 0x736F6C6343 STOP ADDMOD BYTE STOP CALLER "},"methodIdentifiers":{"approveAdapter(address,bool)":"72a1ee49","approvedAdapters(address)":"5abbc712","executePath((address,bytes,address,uint256,bool)[],bytes32)":"0e4562e7","feeBps()":"24a9d853","feeCollector()":"c415b95c","owner()":"8da5cb5b","paused()":"5c975abb","renounceOwnership()":"715018a6","rescueETH(address,uint256)":"099a04e5","rescueToken(address,address,uint256)":"e5711e8b","setFeeBps(uint256)":"72c27b62","setFeeCollector(address)":"a42dce80","setPaused(bool)":"16c38b3c","transferOwnership(address)":"f2fde38b"}}}}}